:0300000002146B7C
:0C146B00787FE4F6D8FD75815B02080074
:101370004469676974616C20436C6F636B004279E8
:101380002047726F757020313300506C6561736552
:1013900020536574204461746500416E6420546973
:1013A0006D650044617465200025750054696D65A4
:1013B000200074696D652000526573657474696EF0
:0613C0006700616D706D15
:10080000E4F522F523F528F529F536F537F538F521
:1008100039F53A753B16F53CF53DF53EF53FF540AB
:10082000F54178427C00FD7BFF7A1379C2FE7F029E
:100830001212BC78447C007D007BFF7A1379C47E61
:10084000007F021212BC7546007547017F381214F2
:100850005B7F0E12145B7F8012145B7BFF7A13792F
:10086000701213CC7FC012145B7BFF7A13797E1257
:1008700013CC7FD07E071214047F0112145B7F809B
:1008800012145B7BFF7A13798A1213CC7FC0121487
:100890005B7BFF7A13799A1213CC7FD07E071214F8
:1008A000047F0112145B7F0E12145B7F8012145BB5
:1008B0001213C6E4F524F525209603020A46209378
:1008C000031213FB20950B0529E529700205281258
:1008D000140020942FE52945287029D3E537941E6C
:1008E000E5369400500A0537E53770150536801156
:1008F000D3E537941EE5369400400675360075370B
:1009000001121400209431E529640145287029D38F
:10091000E539940BE5389400500A0539E53970152E
:1009200005388011D3E539940BE5389400400675FD
:100930003800753901121400209430E5296402450D
:10094000287028D3E53B9462E53A9400500A053BB1
:10095000E53B7014053A8010D3E53B9462E53A9488
:10096000004005E4F53AF53B121400754BFF754C59
:1009700013754DA985364E85374F7B007A00792A4D
:10098000120EECC3E537940AE53694007F854002E9
:10099000800A12145B7F3012144B7F8612145B7B2B
:1009A000007A00792A1213CC7F8712145B7F2F12F2
:1009B000144B754BFF754C13754DA985384E853911
:1009C0004F7B007A00792C120EECC3E539940AE5CE
:1009D0003894007F884002800A12145B7F30121422
:1009E0004B7F8912145B7B007A00792C1213CC7F29
:1009F0002F12144B7F3212144B7F3012144B754B55
:100A0000FF754C13754DA9853A4E853B4F7B007A97
:100A100000792E120EECC3E53B940AE53A94007F70
:100A20008D4002800A12145B7F3012144B7F8E12AD
:100A3000145B7B007A00792E1213CC0525E5257016
:100A40000205240208B87FC012145B7F0E12145BEB
:100A50007BFF7A1379AC1213CCE4F528F529D296F2
:100A6000F526F527209703020BD02093031213FBE2
:100A700020950B0529E52970020528121400209401
:100A80002FE52945287029D3E53D940BE53C9400DA
:100A9000500A053DE53D7015053C8011D3E53D94B8
:100AA0000BE53C94004006753C00753D01121400B6
:100AB000209430E529640145287028D3E53F943A15
:100AC000E53E9400500A053FE53F7014053E801056
:100AD000D3E53F943AE53E94004005E4F53EF53F0A
:100AE000121400209424E52964024528701CE5476F
:100AF00045467007F546754701800CE5476401459A
:100B0000467004F546F547121400754BFF754C13FB
:100B1000754DA9853C4E853D4F7B007A007930129A
:100B20000EECC3E53D940AE53C94007FC54002808D
:100B30000A12145B7F3012144B7FC612145B7B00C9
:100B40007A0079301213CC7FC712145B7F3A1214EB
:100B50004B754BFF754C13754DA9853E4E853F4F28
:100B60007B007A007932120EECC3E53F940AE53E31
:100B700094007FC84002800A12145B7F3012144B2D
:100B80007FC912145B7B007A0079321213CC7FCAC2
:100B900012145B7F3A12144B7F3012144B7F3012C9
:100BA000144B7F2012144BE547640145467008FB47
:100BB0007A0079421213CCE54745467008FB7A006B
:100BC00079441213CC0527E52770020526020A6432
:100BD0007F0112145B0541E54170020540D3943B4F
:100BE000E5409400400DE4F540F541053FE53F70D8
:100BF00002053ED3E53F943BE53E9400400DE4F50D
:100C00003EF53F053DE53D7002053CD3E53D940CC6
:100C1000E53C94004026753C00753D01E5476401C4
:100C200045467004F546F547E5474546700E0537DD
:100C3000E53770020536754600754701D3E53794F0
:100C40001EE5369400400DE4F536F5370539E539F3
:100C500070020538D3E539940CE5389400400DE472
:100C6000F538F539053BE53B7002053A2093030260
:100C70000E737F0E12145B7F8012145B1213C67505
:100C80004BFF754C13754DA985364E85374F7B004C
:100C90007A00792A120EEC754BFF754C13754DA92D
:100CA00085384E85394F7B007A00792C120EEC7511
:100CB0004BFF754C13754DA9853A4E853B4F7B0014
:100CC0007A00792E120EEC754BFF754C13754DA9F9
:100CD000853C4E853D4F7B007A007930120EEC75D5
:100CE0004BFF754C13754DA9853E4E853F4F7B00DC
:100CF0007A007932120EEC754BFF754C13754DA9C5
:100D000085404E85414F7B007A007934120EECC34A
:100D1000E537940AE53694007F854002800A121474
:100D20005B7F3012144B7F8612145B7B007A007954
:100D30002A1213CC7F8712145B7F2F12144BC3E54A
:100D400039940AE53894007F884002800A12145BC7
:100D50007F3012144B7F8912145B7B007A00792C50
:100D60001213CC7F8A12145B7F2F12144B7F8B12CD
:100D7000145B7F3212144B7F8C12145B7F30121481
:100D80004BC3E53B940AE53A94007F8D4002800A0C
:100D900012145B7F3012144B7F8E12145B7B007A2F
:100DA00000792E1213CC7F8F12145B7F2012144B0C
:100DB0007FC012145B7F0E12145B7BFF7A1379B233
:100DC0001213CCC3E53D940AE53C94007FC5400274
:100DD000800A12145B7F3012144B7FC612145B7BA7
:100DE000007A0079301213CC7FC712145B7F3A125D
:100DF000144BC3E53F940AE53E94007FC84002804F
:100E00000A12145B7F3012144B7FC912145B7B00F3
:100E10007A0079321213CC7FCA12145B7F3A121413
:100E20004BC3E541940AE54094007FCB4002800A21
:100E300012145B7F3012144B7FCC12145B7B007A50
:100E40000079341213CC7F2012144BE5476401451E
:100E5000467008FB7A0079421213CCE5474546708C
:100E600008FB7A0079441213CC7FE67E0112140449
:100E7000020BD57F0112145B7F8012145B7BFF7A1B
:100E80001379B81213CC7FD07E0712140402084CD9
:0613C6007BFF7A1379A3FE
:0613CC008B488A49894AA2
:1013D200E4F54BF54CF54BF54CAB48AA49A94A85C7
:1013E2004C82854B831212E2FF600D12144B054CA6
:0813F200E54C70E5054B80E1BC
:0113FA0022D0
:10144B008FA0D290D2927F057E00121404C29222FA
:10145B008FA0C290D2927F057E00121404C29222FA
:0913FB00E4F528F5297FF47E01D8
:10140400E4FDFCC3ED9FEC9E5015E4FAFB0BBB001E
:0F141400010AEB64734A70F50DBD00010C80E412
:0114230022A6
:1011EC00E709F608DFFA8046E709F208DFFA803EE5
:1011FC0088828C83E709F0A3DFFA8032E309F608D2
:10120C00DFFA8078E309F208DFFA807088828C8339
:10121C00E309F0A3DFFA806489828A83E0A3F608ED
:10122C00DFFA805889828A83E0A3F208DFFA804CC7
:10123C0080D280FA80C680D4806980F2803380109E
:10124C0080A680EA809A80A880DA80E280CA803307
:10125C0089828A83ECFAE493A3C8C582C8CCC5837F
:10126C00CCF0A3C8C582C8CCC583CCDFE9DEE7804F
:10127C000D89828A83E493A3F608DFF9ECFAA9F0CE
:10128C00EDFB2289828A83ECFAE0A3C8C582C8CC24
:10129C00C583CCF0A3C8C582C8CCC583CCDFEADE3D
:1012AC00E880DB89828A83E493A3F208DFF980CC9F
:1012BC0088F0EF60010E4E60C388F0ED2402B40498
:1012CC000050B9F582EB2402B4040050AF2323453F
:0612DC00822390123C7316
:1012E200BB010CE58229F582E5833AF583E02250C1
:1012F20006E92582F8E622BBFE06E92582F8E2220B
:0D130200E58229F582E5833AF583E4932224
:100E9000E557244BF8E60557227848300702784B8F
:100EA000E475F00112133A02130F2000EB7F2ED2EB
:100EB000008018EF540F2490D43440D4FF30040B3A
:100EC000EF24BFB41A0050032461FFE558600215F7
:100ED00058055BE55B7002055A30070D7848E475EC
:100EE000F00112133AEF0213280214247403D207FC
:100EF0008003E4C207F5578B488A49894AE4F558CC
:100F0000F55AF55BE55860077F20120ECB80F5752A
:100F100059FFC201C200C202C203C205C206C20812
:100F2000120E99FF700D3007057F00120EDCAF5BCB
:100F3000AE5A22B4255FC2D5C204120E99FF24D046
:100F4000B40A00501A75F00A785830D50508B6FF73
:100F50000106C6A426F620D5047002D20380D92447
:100F6000CFB41A00EF5004C2E5D2040210DCD20163
:100F700080C6D20080C0D20280BCD2D580BAD20551
:100F800080B47F20120ECB2002077401B5580040B8
:100F9000F1120E90FF120ECB020F04D208D206807F
:100FA00095120E90FB120E90FA120E90F94A4B70A9
:100FB0000679AD7A117BFF20022EE558602A7E006B
:100FC0008E827583001212E260060EEE655970F093
:100FD000C2D5EBC0E0EAC0E0E9C0E0EE121123D0D8
:100FE000E0F9D0E0FAD0E0FB12130FFF60AAEBC0EB
:100FF000E0EAC0E0E9C0E0120ECBD0E02401F9D075
:10100000E03400FAD0E0FBE5590460DCD559D98022
:10101000877BFF7A11791FD202809C791080027938
:1010200008C206C2088008D2D5790A8004790AC2AB
:10103000D5E559047002F559E4FAFDFEFF120E9051
:10104000FC7B08200113120E90FD7B1030000A1269
:101050000E90FE120E90FF7B20EC3382D592D5507D
:1010600013C3E43000069FFFE49EFEE42001039DCD
:10107000FDE49CFCE4CBF8C201EC700CCFCECDCCEF
:10108000E824F8F870F38017C3EF33FFEE33FEED7A
:1010900033FDEC33FCEB33FB994002FB0FD8E9EB5B
:1010A000300105F8D0E0C448B201C0E00AEC4D4E72
:1010B0004F78207B0070C2EAB5590040BCC0E012F6
:1010C0001125D0F0D0E0200104C4C0E0C4B201C0BA
:1010D000F0120EB4D0F0D5F0EB020F0412134A0F49
:1010E000A153101B580F724C0F6E42101F4F102748
:0F10F000441027490F8743102D5510114610113A
:1010FF004510114711CD500F762D0F7A2E0F9D2BC6
:10110F000F7E230F9B2011B62A0F364800000F9534
:10111F003F3F3F00790AA2D5200314300509B910CB
:10112F00020404B9080104A2D520060250010420CC
:10113F0002689202B558005034C0E07F2030031986
:10114F007F30A20272067205500F12117CC202C2CA
:10115F0006C205C2087F30800F300503E9C0E012D8
:10116F000ECB300503D0E0F9D0E0B558CC300517E1
:10117F007F30B9100C120ECB7F583004077F788068
:10118F0003B90803120ECB3002057F2D020ECB7F61
:10119F00202008F87F2B2006F322920280CF286EA2
:1011AF00756C6C2900D201120E903001F8C20178D3
:1011BF005830D50108F6020F362D50434958120EFC
:1011CF00902403B405004001E49011C893120EBCA3
:0D11DF00743A120EBCD20375580402101BA6
:10130F00BB010689828A83E0225002E722BBFE02DC
:09131F00E32289828A83E493220F
:10132800BB010689828A83F0225002F722BBFE01A4
:02133800F3229E
:10133A00FAE6FB0808E6F925F0F618E6CA3AF622B4
:10134A00D083D082F8E4937012740193700DA3A332
:10135A0093F8740193F5828883E473740293686046
:06136A00EFA3A3A380DF46
:10142400EFB40A07740D12142F740A309811A89996
:10143400B8130CC2983098FDA899C298B811F63028
:0714440099FDC299F5992200
:00000001FF
