:03000000020D2DC1
:0C0D2D00787FE4F6D8FD758124020800F0
:100D1D0044617465200054696D652000616D706DCE
:040CB5008E208F21DD
:100CB9007C007D0A120C31EF2430FF120CFDAE20AE
:100CC900AF217C007D0A120C31ED2430FF020CFDAE
:10080000E4F508F509F50E750F16F510751107F5E5
:1008100012751316F51475150BF51675173BF518AB
:10082000751937781A7C00FD7BFF7A0D7929FE7FD8
:1008300002120BDE781C7C007D007BFF7A0D792B89
:100840007E007F02120BDEE4F51EF51F7F38120DCD
:100850000D7F0E120D0D7F80120D0D7BFF7A0D792D
:100860001D120C867FC0120D0D7F0E120D0D7BFF29
:100870007A0D7923120C860519E51970020518D333
:10088000943BE5189400400DE4F518F5190517E5BB
:100890001770020516D3E517943BE5169400402F18
:1008A000E4F516F5170515E51570020514640C45F9
:1008B00014701CE51F6401451E7006F51EF51F80AF
:1008C0000E050FE50F7002050E751E00751F01D392
:1008D000E515940CE5149400400675140075150197
:1008E000D3E50F941FE50E9400400DE4F50EF50FCF
:1008F0000511E51170020510D3E511940CE5109473
:1009000000400DE4F510F5110513E5137002051212
:10091000E4F50AF50B3097030209A9209329D3E5E2
:100920000F941FE50E9400500A050FE50F70150592
:100930000E8011D3E50F941FE50E94004006750E4E
:1009400000750F01120CD9209429D3E511940BE501
:10095000109400500A0511E511701505108011D38F
:10096000E511940BE5109400400675100075110117
:10097000120CD9209528D3E5139462E51294005007
:100980000A0513E513701405128010D3E513946261
:10099000E51294004005E4F512F513120CD9050B8D
:1009A000E50B7002050A020915E4F50AF50B20961D
:1009B00076209329D3E515940BE5149400500A058D
:1009C00015E515701505148011D3E515940BE51484
:1009D00094004006751400751501120CD920942856
:1009E000D3E517943AE5169400500A0517E51770F9
:1009F0001405168010D3E517943AE51694004005C7
:100A0000E4F516F517120CD9209511E4F51EF51F23
:100A1000120CD9209506751E00751F01050BE50BFC
:100A20007002050A0209AE2096242097217FD07E0D
:100A300007120CDD209617209714E51F6401451E50
:100A40007006F51EF51F8006751E00751F017F8557
:100A5000120D0DAF0FAE0E120CB57F87120D0D7F6C
:100A60002F120CFD7F88120D0DAF11AE10120CB5B8
:100A70007F8A120D0D7F2F120CFD7F8B120D0D7FC3
:100A800032120CFD7F8C120D0D7F30120CFD7F8D0C
:100A9000120D0DAF13AE12120CB57F8F120D0D7F1C
:100AA00020120CFD7FC5120D0DAF15AE14120CB542
:100AB0007FC7120D0D7F3A120CFD7FC8120D0DAFCE
:100AC00017AE16120CB57FCA120D0D7F3A120CFD2F
:100AD0007FCB120D0DAF19AE18120CB57F20120C82
:100AE000FD7FCE120D0DE51F6401451E7008FB7AD7
:100AF00000791A120C86E51F451E7008FB7A0079F2
:0E0B00001C120C867F4E7E02120CDD0208775E
:060C86008B208A21892267
:100C8C00E4F523F524F523F524AB20AA21A922852C
:100C9C002482852383120C04FF600D120CFD0524A5
:080CAC00E52470E5052380E159
:010CB400221D
:100CFD008FA0D290D2927F057E00120CDDC292227F
:100D0D008FA0C290D2927F057E00120CDDC292227E
:040CD9007FF47E0125
:100CDD00E4FDFCC3ED9FEC9E5015E4FAFB0BBB004D
:0F0CED00010AEB64734A70F50DBD00010C80E441
:010CFC0022D5
:100B0E00E709F608DFFA8046E709F208DFFA803EC9
:100B1E0088828C83E709F0A3DFFA8032E309F608B6
:100B2E00DFFA8078E309F208DFFA807088828C831E
:100B3E00E309F0A3DFFA806489828A83E0A3F608D2
:100B4E00DFFA805889828A83E0A3F208DFFA804CAC
:100B5E0080D280FA80C680D4806980F28033801083
:100B6E0080A680EA809A80A880DA80E280CA8033EC
:100B7E0089828A83ECFAE493A3C8C582C8CCC58364
:100B8E00CCF0A3C8C582C8CCC583CCDFE9DEE78034
:100B9E000D89828A83E493A3F608DFF9ECFAA9F0B3
:100BAE00EDFB2289828A83ECFAE0A3C8C582C8CC09
:100BBE00C583CCF0A3C8C582C8CCC583CCDFEADE22
:100BCE00E880DB89828A83E493A3F208DFF980CC84
:100BDE0088F0EF60010E4E60C388F0ED2402B4047D
:100BEE000050B9F582EB2402B4040050AF23234524
:060BFE008223900B5E73E0
:100C0400BB010CE58229F582E5833AF583E02250A5
:100C140006E92582F8E622BBFE06E92582F8E222EF
:0D0C2400E58229F582E5833AF583E4932209
:100C3100BC000BBE0029EF8DF084FFADF022E4CCA7
:100C4100F875F008EF2FFFEE33FEEC33FCEE9DEC70
:100C5100984005FCEE9DFE0FD5F0E9E4CEFD22EDB6
:100C6100F8F5F0EE8420D21CFEADF075F008EF2F00
:100C7100FFED33FD4007985006D5F0F222C398FDF1
:050C81000FD5F0EA228E
:00000001FF
